{
  "contractName": "Ball",
  "abi": [
    {
      "inputs": [
        {
          "internalType": "string",
          "name": "_name",
          "type": "string"
        },
        {
          "internalType": "uint256",
          "name": "_initialMaxRegistrations",
          "type": "uint256"
        },
        {
          "internalType": "uint256",
          "name": "_registrationFee",
          "type": "uint256"
        }
      ],
      "stateMutability": "nonpayable",
      "type": "constructor"
    },
    {
      "anonymous": false,
      "inputs": [
        {
          "indexed": true,
          "internalType": "address",
          "name": "previousOwner",
          "type": "address"
        },
        {
          "indexed": true,
          "internalType": "address",
          "name": "newOwner",
          "type": "address"
        }
      ],
      "name": "OwnershipTransferred",
      "type": "event"
    },
    {
      "inputs": [],
      "name": "owner",
      "outputs": [
        {
          "internalType": "address",
          "name": "",
          "type": "address"
        }
      ],
      "stateMutability": "view",
      "type": "function"
    },
    {
      "inputs": [],
      "name": "renounceOwnership",
      "outputs": [],
      "stateMutability": "nonpayable",
      "type": "function"
    },
    {
      "inputs": [
        {
          "internalType": "address",
          "name": "newOwner",
          "type": "address"
        }
      ],
      "name": "transferOwnership",
      "outputs": [],
      "stateMutability": "nonpayable",
      "type": "function"
    },
    {
      "inputs": [],
      "name": "viewName",
      "outputs": [
        {
          "internalType": "string",
          "name": "",
          "type": "string"
        }
      ],
      "stateMutability": "view",
      "type": "function"
    },
    {
      "inputs": [
        {
          "internalType": "uint256",
          "name": "_newRegFee",
          "type": "uint256"
        }
      ],
      "name": "setRegistrationFee",
      "outputs": [],
      "stateMutability": "nonpayable",
      "type": "function"
    },
    {
      "inputs": [],
      "name": "register",
      "outputs": [],
      "stateMutability": "payable",
      "type": "function"
    },
    {
      "inputs": [
        {
          "internalType": "address",
          "name": "wallet",
          "type": "address"
        }
      ],
      "name": "isRegistered",
      "outputs": [
        {
          "internalType": "bool",
          "name": "",
          "type": "bool"
        }
      ],
      "stateMutability": "view",
      "type": "function"
    },
    {
      "inputs": [],
      "name": "totalRegistered",
      "outputs": [
        {
          "internalType": "uint256",
          "name": "",
          "type": "uint256"
        }
      ],
      "stateMutability": "view",
      "type": "function"
    },
    {
      "inputs": [
        {
          "internalType": "address",
          "name": "_address",
          "type": "address"
        }
      ],
      "name": "checkIn",
      "outputs": [],
      "stateMutability": "nonpayable",
      "type": "function"
    },
    {
      "inputs": [],
      "name": "isCheckedIn",
      "outputs": [
        {
          "internalType": "bool",
          "name": "",
          "type": "bool"
        }
      ],
      "stateMutability": "view",
      "type": "function"
    },
    {
      "inputs": [],
      "name": "withdraw",
      "outputs": [],
      "stateMutability": "nonpayable",
      "type": "function"
    }
  ],
  "bytecode": "0x60806040523480156200001157600080fd5b50604051620016b5380380620016b5833981810160405281019062000037919062000377565b620000576200004b620000dd60201b60201c565b620000e560201b60201c565b826001908162000068919062000633565b5081600281905550600060038190555080600481905550735cbd3cc653c7f2be5c9f10d24d280eed0ad0c9f6600560006101000a81548173ffffffffffffffffffffffffffffffffffffffff021916908373ffffffffffffffffffffffffffffffffffffffff1602179055505050506200071a565b600033905090565b60008060009054906101000a900473ffffffffffffffffffffffffffffffffffffffff169050816000806101000a81548173ffffffffffffffffffffffffffffffffffffffff021916908373ffffffffffffffffffffffffffffffffffffffff1602179055508173ffffffffffffffffffffffffffffffffffffffff168173ffffffffffffffffffffffffffffffffffffffff167f8be0079c531659141344cd1fd0a4f28419497f9722a3daafe3b4186f6b6457e060405160405180910390a35050565b6000604051905090565b600080fd5b600080fd5b600080fd5b600080fd5b6000601f19601f8301169050919050565b7f4e487b7100000000000000000000000000000000000000000000000000000000600052604160045260246000fd5b6200021282620001c7565b810181811067ffffffffffffffff82111715620002345762000233620001d8565b5b80604052505050565b600062000249620001a9565b905062000257828262000207565b919050565b600067ffffffffffffffff8211156200027a5762000279620001d8565b5b6200028582620001c7565b9050602081019050919050565b60005b83811015620002b257808201518184015260208101905062000295565b60008484015250505050565b6000620002d5620002cf846200025c565b6200023d565b905082815260208101848484011115620002f457620002f3620001c2565b5b6200030184828562000292565b509392505050565b600082601f830112620003215762000320620001bd565b5b815162000333848260208601620002be565b91505092915050565b6000819050919050565b62000351816200033c565b81146200035d57600080fd5b50565b600081519050620003718162000346565b92915050565b600080600060608486031215620003935762000392620001b3565b5b600084015167ffffffffffffffff811115620003b457620003b3620001b8565b5b620003c28682870162000309565b9350506020620003d58682870162000360565b9250506040620003e88682870162000360565b9150509250925092565b600081519050919050565b7f4e487b7100000000000000000000000000000000000000000000000000000000600052602260045260246000fd5b600060028204905060018216806200044557607f821691505b6020821081036200045b576200045a620003fd565b5b50919050565b60008190508160005260206000209050919050565b60006020601f8301049050919050565b600082821b905092915050565b600060088302620004c57fffffffffffffffffffffffffffffffffffffffffffffffffffffffffffffffff8262000486565b620004d1868362000486565b95508019841693508086168417925050509392505050565b6000819050919050565b6000620005146200050e62000508846200033c565b620004e9565b6200033c565b9050919050565b6000819050919050565b6200053083620004f3565b620005486200053f826200051b565b84845462000493565b825550505050565b600090565b6200055f62000550565b6200056c81848462000525565b505050565b5b8181101562000594576200058860008262000555565b60018101905062000572565b5050565b601f821115620005e357620005ad8162000461565b620005b88462000476565b81016020851015620005c8578190505b620005e0620005d78562000476565b83018262000571565b50505b505050565b600082821c905092915050565b60006200060860001984600802620005e8565b1980831691505092915050565b6000620006238383620005f5565b9150826002028217905092915050565b6200063e82620003f2565b67ffffffffffffffff8111156200065a5762000659620001d8565b5b6200066682546200042c565b6200067382828562000598565b600060209050601f831160018114620006ab576000841562000696578287015190505b620006a2858262000615565b86555062000712565b601f198416620006bb8662000461565b60005b82811015620006e557848901518255600182019150602085019450602081019050620006be565b8683101562000705578489015162000701601f891682620005f5565b8355505b6001600288020188555050505b505050505050565b610f8b806200072a6000396000f3fe60806040526004361061009c5760003560e01c8063927416c011610064578063927416c01461012f578063b5f10b381461015a578063c320c72714610185578063c3c5a547146101ae578063d9a59e33146101eb578063f2fde38b146102145761009c565b80631aa3a008146100a1578063384f0143146100ab5780633ccfd60b146100d6578063715018a6146100ed5780638da5cb5b14610104575b600080fd5b6100a961023d565b005b3480156100b757600080fd5b506100c0610450565b6040516100cd919061091a565b60405180910390f35b3480156100e257600080fd5b506100eb6104a4565b005b3480156100f957600080fd5b50610102610502565b005b34801561011057600080fd5b50610119610516565b6040516101269190610976565b60405180910390f35b34801561013b57600080fd5b5061014461053f565b60405161015191906109aa565b60405180910390f35b34801561016657600080fd5b5061016f610549565b60405161017c9190610a55565b60405180910390f35b34801561019157600080fd5b506101ac60048036038101906101a79190610aa8565b6105db565b005b3480156101ba57600080fd5b506101d560048036038101906101d09190610b01565b6105ed565b6040516101e2919061091a565b60405180910390f35b3480156101f757600080fd5b50610212600480360381019061020d9190610b01565b610643565b005b34801561022057600080fd5b5061023b60048036038101906102369190610b01565b610732565b005b600760003373ffffffffffffffffffffffffffffffffffffffff1673ffffffffffffffffffffffffffffffffffffffff16815260200190815260200160002060009054906101000a900460ff16156102ca576040517f08c379a00000000000000000000000000000000000000000000000000000000081526004016102c190610b7a565b60405180910390fd5b60025460035410610310576040517f08c379a000000000000000000000000000000000000000000000000000000000815260040161030790610be6565b60405180910390fd5b600454341015610355576040517f08c379a000000000000000000000000000000000000000000000000000000000815260040161034c90610c52565b60405180910390fd5b6000606460056004546103689190610ca1565b6103729190610d12565b90506001600760003373ffffffffffffffffffffffffffffffffffffffff1673ffffffffffffffffffffffffffffffffffffffff16815260200190815260200160002060006101000a81548160ff021916908315150217905550600360008154809291906103df90610d43565b9190505550600560009054906101000a900473ffffffffffffffffffffffffffffffffffffffff1673ffffffffffffffffffffffffffffffffffffffff166108fc829081150290604051600060405180830381858888f1935050505015801561044c573d6000803e3d6000fd5b5050565b6000600660003373ffffffffffffffffffffffffffffffffffffffff1673ffffffffffffffffffffffffffffffffffffffff16815260200190815260200160002060009054906101000a900460ff16905090565b6104ac6107b5565b60004790506104b9610516565b73ffffffffffffffffffffffffffffffffffffffff166108fc829081150290604051600060405180830381858888f193505050501580156104fe573d6000803e3d6000fd5b5050565b61050a6107b5565b6105146000610833565b565b60008060009054906101000a900473ffffffffffffffffffffffffffffffffffffffff16905090565b6000600354905090565b60606001805461055890610dba565b80601f016020809104026020016040519081016040528092919081815260200182805461058490610dba565b80156105d15780601f106105a6576101008083540402835291602001916105d1565b820191906000526020600020905b8154815290600101906020018083116105b457829003601f168201915b5050505050905090565b6105e36107b5565b8060048190555050565b6000600760008373ffffffffffffffffffffffffffffffffffffffff1673ffffffffffffffffffffffffffffffffffffffff16815260200190815260200160002060009054906101000a900460ff169050919050565b61064b6107b5565b600760008273ffffffffffffffffffffffffffffffffffffffff1673ffffffffffffffffffffffffffffffffffffffff16815260200190815260200160002060009054906101000a900460ff166106d7576040517f08c379a00000000000000000000000000000000000000000000000000000000081526004016106ce90610e37565b60405180910390fd5b6001600660008373ffffffffffffffffffffffffffffffffffffffff1673ffffffffffffffffffffffffffffffffffffffff16815260200190815260200160002060006101000a81548160ff02191690831515021790555050565b61073a6107b5565b600073ffffffffffffffffffffffffffffffffffffffff168173ffffffffffffffffffffffffffffffffffffffff16036107a9576040517f08c379a00000000000000000000000000000000000000000000000000000000081526004016107a090610ec9565b60405180910390fd5b6107b281610833565b50565b6107bd6108f7565b73ffffffffffffffffffffffffffffffffffffffff166107db610516565b73ffffffffffffffffffffffffffffffffffffffff1614610831576040517f08c379a000000000000000000000000000000000000000000000000000000000815260040161082890610f35565b60405180910390fd5b565b60008060009054906101000a900473ffffffffffffffffffffffffffffffffffffffff169050816000806101000a81548173ffffffffffffffffffffffffffffffffffffffff021916908373ffffffffffffffffffffffffffffffffffffffff1602179055508173ffffffffffffffffffffffffffffffffffffffff168173ffffffffffffffffffffffffffffffffffffffff167f8be0079c531659141344cd1fd0a4f28419497f9722a3daafe3b4186f6b6457e060405160405180910390a35050565b600033905090565b60008115159050919050565b610914816108ff565b82525050565b600060208201905061092f600083018461090b565b92915050565b600073ffffffffffffffffffffffffffffffffffffffff82169050919050565b600061096082610935565b9050919050565b61097081610955565b82525050565b600060208201905061098b6000830184610967565b92915050565b6000819050919050565b6109a481610991565b82525050565b60006020820190506109bf600083018461099b565b92915050565b600081519050919050565b600082825260208201905092915050565b60005b838110156109ff5780820151818401526020810190506109e4565b60008484015250505050565b6000601f19601f8301169050919050565b6000610a27826109c5565b610a3181856109d0565b9350610a418185602086016109e1565b610a4a81610a0b565b840191505092915050565b60006020820190508181036000830152610a6f8184610a1c565b905092915050565b600080fd5b610a8581610991565b8114610a9057600080fd5b50565b600081359050610aa281610a7c565b92915050565b600060208284031215610abe57610abd610a77565b5b6000610acc84828501610a93565b91505092915050565b610ade81610955565b8114610ae957600080fd5b50565b600081359050610afb81610ad5565b92915050565b600060208284031215610b1757610b16610a77565b5b6000610b2584828501610aec565b91505092915050565b7f416c726561647920726567697374657265640000000000000000000000000000600082015250565b6000610b646012836109d0565b9150610b6f82610b2e565b602082019050919050565b60006020820190508181036000830152610b9381610b57565b9050919050565b7f5265676973747279206c696d6974207265616368656400000000000000000000600082015250565b6000610bd06016836109d0565b9150610bdb82610b9a565b602082019050919050565b60006020820190508181036000830152610bff81610bc3565b9050919050565b7f496e73756666696369656e74207061796d656e74000000000000000000000000600082015250565b6000610c3c6014836109d0565b9150610c4782610c06565b602082019050919050565b60006020820190508181036000830152610c6b81610c2f565b9050919050565b7f4e487b7100000000000000000000000000000000000000000000000000000000600052601160045260246000fd5b6000610cac82610991565b9150610cb783610991565b9250828202610cc581610991565b91508282048414831517610cdc57610cdb610c72565b5b5092915050565b7f4e487b7100000000000000000000000000000000000000000000000000000000600052601260045260246000fd5b6000610d1d82610991565b9150610d2883610991565b925082610d3857610d37610ce3565b5b828204905092915050565b6000610d4e82610991565b91507fffffffffffffffffffffffffffffffffffffffffffffffffffffffffffffffff8203610d8057610d7f610c72565b5b600182019050919050565b7f4e487b7100000000000000000000000000000000000000000000000000000000600052602260045260246000fd5b60006002820490506001821680610dd257607f821691505b602082108103610de557610de4610d8b565b5b50919050565b7f4e6f742072656769737465726564000000000000000000000000000000000000600082015250565b6000610e21600e836109d0565b9150610e2c82610deb565b602082019050919050565b60006020820190508181036000830152610e5081610e14565b9050919050565b7f4f776e61626c653a206e6577206f776e657220697320746865207a65726f206160008201527f6464726573730000000000000000000000000000000000000000000000000000602082015250565b6000610eb36026836109d0565b9150610ebe82610e57565b604082019050919050565b60006020820190508181036000830152610ee281610ea6565b9050919050565b7f4f776e61626c653a2063616c6c6572206973206e6f7420746865206f776e6572600082015250565b6000610f1f6020836109d0565b9150610f2a82610ee9565b602082019050919050565b60006020820190508181036000830152610f4e81610f12565b905091905056fea26469706673582212201d172b93e8af23cededfcefaafb279b0d840fa3589b70e05bb7cb14ea3c2d84c64736f6c63430008130033",
  "immutableReferences": {},
  "source": "// SPDX-License-Identifier: MIT\npragma solidity 0.8.19;\n\nimport \"@openzeppelin/contracts/access/Ownable.sol\";\n\ncontract Ball is Ownable {\n    string private name;\n    uint256 private maxRegistrations;\n    uint256 private registeredCount;\n    uint private registrationFee;\n    address payable private feeRecipient;\n\n    mapping(address => bool) private _checkedInTickets;\n    mapping(address => bool) private registry;\n\n    constructor(\n        string memory _name,\n        uint256 _initialMaxRegistrations,\n        uint256 _registrationFee\n    ) {\n        name = _name;\n        maxRegistrations = _initialMaxRegistrations;\n        registeredCount = 0;\n        registrationFee = _registrationFee;\n        feeRecipient = payable(\n            address(0x5cBd3cc653C7F2bE5C9f10D24d280eeD0aD0c9f6)\n        );\n    }\n\n    function viewName() public view returns (string memory) {\n        return name;\n    }\n\n    function setRegistrationFee(uint256 _newRegFee) public onlyOwner {\n        registrationFee = _newRegFee;\n    }\n\n    // Register the wallet address (aka user)\n    function register() public payable {\n        require(!registry[msg.sender], \"Already registered\");\n        require(registeredCount < maxRegistrations, \"Registry limit reached\");\n        require(msg.value >= registrationFee, \"Insufficient payment\");\n        uint256 feePercentage = (registrationFee * 5) / 100; // Calculate 5% of the registration fee\n\n        registry[msg.sender] = true;\n        registeredCount++;\n\n        feeRecipient.transfer(feePercentage);\n    }\n\n    // Check if the wallet address is registered\n    function isRegistered(address wallet) public view returns (bool) {\n        return registry[wallet];\n    }\n\n    // Get total registered count\n    function totalRegistered() public view returns (uint256) {\n        return registeredCount;\n    }\n\n    // Check in called by owner\n    function checkIn(address _address) public onlyOwner {\n        require(registry[_address], \"Not registered\");\n        _checkedInTickets[_address] = true;\n    }\n\n    function isCheckedIn() public view returns (bool) {\n        return _checkedInTickets[msg.sender];\n    }\n\n    // Transfer the remaining balance to the contract owner address of choosing\n    function withdraw() public onlyOwner {\n        uint256 contractBalance = address(this).balance;\n        payable(address(owner())).transfer(contractBalance);\n    }\n}\n",
  "sourcePath": "/Users/balthazar/coding-projects/masquerade/contracts/Ball.sol",
  "compiler": {
    "name": "solc",
    "version": "0.8.19+commit.7dd6d404.Emscripten.clang"
  },
  "schemaVersion": "3.3.4",
  "updatedAt": "2023-09-10T01:55:58.348Z",
  "devdoc": {
    "kind": "dev",
    "methods": {
      "owner()": {
        "details": "Returns the address of the current owner."
      },
      "renounceOwnership()": {
        "details": "Leaves the contract without owner. It will not be possible to call `onlyOwner` functions. Can only be called by the current owner. NOTE: Renouncing ownership will leave the contract without an owner, thereby disabling any functionality that is only available to the owner."
      },
      "transferOwnership(address)": {
        "details": "Transfers ownership of the contract to a new account (`newOwner`). Can only be called by the current owner."
      }
    },
    "version": 1
  },
  "userdoc": {
    "kind": "user",
    "methods": {},
    "version": 1
  }
}